:020000040000FA
:06000000E6EF19F012000A
:08000800D0BEFEEF19F08CEFF1
:0400100014F01200D6
:060018008CEF14F0120051
:06002A0001001A34000081
:0800300094040000230000000D
:08003800CDEC13F07ADA9DDA39
:1000400046DB76DAEDDA17DBCEEC13F012000101B5
:100050002A050EE101012251006E016AD89001507B
:1000600004E6FF0E005C000E015802E20101222BA3
:100070001200D9CFE6FFDACFE6FFE1CFD9FFE2CF1A
:10008000DAFFE65201012A0573E1C00EF214DF6EB9
:10009000800ED0143F09F21601012251000802E23D
:1000A000010122070101225161E1010124515EE1B8
:1000B000520E006E2C0E016E000E026E27C103F070
:1000C000046A056A00500324F36E01500420F46EA4
:1000D00002500520F86EF4CFF7FFF3CFF6FF0800CB
:1000E000F5CF23F1520E016E2C0E026E000E036E40
:1000F00001012351EA6A280FE96E010EEA22EFCFCF
:1001000004F0056A066A01500424F36E02500520CB
:10011000F46E03500620F86EF4CFF7FFF3CFF6FF2E
:100120000800F5CF00F001012351080DF350002421
:100130000101266F010125510101265D17E0010132
:100140002651E96EEA6AD890E936EA369C0EE9262D
:10015000010EEA22EECF98F1EDCF99F10001B02B1C
:10016000000EB123B223B323D5EC14F0DF50F2120A
:10017000E552E552E5CFDAFFE7CFD9FF1200D9CF3C
:10018000E6FFDACFE6FFE1CFD9FFE2CFDAFFE652B2
:1001900001012A0517E1C00EF214DF6E800ED014A3
:1001A0003F09F21601012451006E016AD8900150F6
:1001B00004E6FF0E005C000E015802E20101242B50
:1001C000DF50F212E552E552E5CFDAFFE7CFD9FF73
:1001D0001200D9CFE6FFDACFE6FFE1CFD9FFE2CFB9
:1001E000DAFFE65201012A051CE1C00EF214DF6EAF
:1001F000800ED0143F09F2160101245100080FE2CD
:10020000010124070101245107E10101225104E108
:10021000DF50F212F6DA02D0DF50F21202D0DF50D5
:10022000F212E552E552E5CFDAFFE7CFD9FF12002F
:10023000D9CFE6FFDACFE6FFE1CFD9FFE2CFDAFF91
:10024000E652E65201012A515CE1520E006E2C0E7C
:10025000016E000E026E27C103F0046A056A0050A9
:100260000324F36E01500420F46E02500520F86E52
:10027000F4CFF7FFF3CFF6FF0800F550DF6E520E14
:10028000006E2C0E016E000E026EDF50EA6A280F1F
:10029000E96E010EEA22EFCF03F0046A056A00500E
:1002A0000324F36E01500420F46E02500520F86E12
:1002B000F4CFF7FFF3CFF6FF0800010EF5CFDBFF19
:1002C000010EDBCFE6FFDF50080DF350E552E724C7
:1002D0000101266F26C125F101012651E96EEA6A66
:1002E000D890E936EA369C0EE926010EEA22EECFD6
:1002F00098F1EDCF99F198C194F199C195F1CFECB6
:1003000013F0E552E552E552E5CFDAFFE7CFD9FF2A
:100310001200D9CFE6FFDACFE6FFE1CFD9FFE2CF77
:10032000DAFFE652020EE66EE66ABFEC0FF0E55227
:10033000E552C00EF214DF6E800ED0143F09F216A3
:1003400001012C6B2D6B2E6B2F6BDF50F212640EA4
:10035000E66EE66ABFEC0FF0E552E552C00EF2140D
:10036000DF6E800ED0143F09F2162CC1B5F02DC1FE
:10037000B6F02EC1B7F02FC1B8F00001010EBD6F6D
:10038000DF50F212E552E552E5CFDAFFE7CFD9FFB1
:100390001200D9CFE6FFDACFE6FFE1CFD9FFE2CFF7
:1003A000DAFFE652E652E652BDEC13F0C00EF2144C
:1003B000DF6E800ED0143F09F2160301002B000EF1
:1003C000012302230323DF50F21201012A0501E079
:1003D000A0D0010E9AC1DBFF020E9BC1DBFF010E14
:1003E000DBCFE9FF020EDBCFEAFF150EE926000E98
:1003F000EA22EFCF00F0016A026A036A0F0E0018CA
:1004000005E1015003E1025001E1035001E181D017
:10041000C00EF214DF6E800ED0143F09F216010EEA
:10042000DBCFE9FF020EDBCFEAFF120EE926000E5A
:10043000EA22EE50ED105AE0010EDBCFE9FF020E8A
:10044000DBCFEAFF120EE926000EEA22EE06000ECE
:10045000ED5AEECF00F0EDCF01F00050011046E173
:10046000010EDBCFE9FF020EDBCFEAFF140EE92617
:10047000000EEA22EF50080B2CE1010EDBCFE9FF62
:10048000020EDBCFEAFF190EE926000EEA22EF503A
:1004900001012713010EDBCFE9FF020EDBCFEAFFDC
:1004A000180EE926000EEA22EFCF00F0010EDBCF96
:1004B000E9FF020EDBCFEAFF170EE926000EEA2263
:1004C000EF50EA6A280FE96E010EEA220050EF129F
:1004D0000DD0010EDBCFE9FF020EDBCFEAFF120EDB
:1004E000E926000EEA22010EEE6EED6A010EDBCF68
:1004F000E9FF020EDBCFEAFF0E0EE926000EEA222C
:10050000010EEECFDBFF020EEDCFDBFFDF50F2126C
:1005100066D7E552E552E552E552E5CFDAFFE7CF7F
:10052000D9FF1200FC0EF36EF46A00D01200120024
:1005300012000301006B016B026B036B0101226B64
:100540000101246B01012B6B01012A6B0001B06BCF
:10055000B16BB26BB36B01012C6B2D6B2E6B2F6BE0
:100560000001B96BBA6BBB6BBC6B0001B56BB66BB2
:10057000B76BB86B0001BD6B1200D9CFE6FFDACFC5
:10058000E6FFE1CFD9FFE2CFDAFFE652E652E652CC
:10059000E6520101276BD950020FE96EDACFEAFF6C
:1005A000000EEA22280EEE6E010EED6EDE6ADD6AA6
:1005B000DECF00F0DDCF01F0026A036AD89003506D
:1005C000000A08E6020E005C000E0158000E0258F8
:1005D000000E03580FE2020EDBCFE9FFDB2A030E09
:1005E000DBCFEAFF01E3DB2AEF6ADF2A010E01E33A
:1005F000DB2ADED70101256B0101266B0101986B17
:10060000996B0101946B956B040EE15C02E2E16A67
:10061000E552E16EE552E5CFDAFFE7CFD9FF1200F0
:10062000030EE66EE66A000EE66EE66A640EE66E9D
:10063000E66AE66AE66A930EE66E010EE66EE66824
:10064000E6680F0EE66E300EE66E010EE66E000EE8
:10065000E66EE66A020EE66E090EE66E000EE66EC5
:10066000FCEC09F0006E140EE15C02E2E16AE55276
:10067000E16E00501200030EE66EE66A000EE66EB2
:10068000E66A640EE66EE66AE66AE66A210EE66EE1
:10069000010EE66EFE0EE66EE6680E0EE66EBE0E0D
:1006A000E66E000EE66E000EE66EE66A5E0EE66E22
:1006B000090EE66E000EE66EFCEC09F0006E140EFC
:1006C000E15C02E2E16AE552E16E00501200D9CF2E
:1006D000E6FFDACFE6FFE1CFD9FFE2CFDAFFE6525D
:1006E000E652E652E652E65201019A6B9B6BDF6AD4
:1006F000DFCF00F0016A026A036AD8900350000A53
:1007000008E6100E005C000E0158000E0258000EA4
:1007100003580DE2EA6ADF34FE0BEA36E96E9C0EFE
:10072000E926010EEA22EE6AED6ADF2AE1D7D95006
:10073000010FE96EDACFEAFF000EEA22BC0EEE6E80
:10074000010EED6ED950030FE96EDACFEAFF000E0D
:10075000EA22D70EEE6E010EED6EDF6ADFCF00F0FB
:10076000016A026A036AD8900350000A08E60B0E79
:10077000005C000E0158000E0258000E035826E2DD
:10078000010EDBCFE9FF020EDBCFEAFF0E0EE926FA
:10079000000EEA22030EDBCFEEFF040EDBCFEDFFEF
:1007A000D950010FE96E000EDA20EA6E1B0EEE261C
:1007B000000EEF22D950030FE96E000EDA20EA6E28
:1007C0001B0EEE26000EEF22DF2AC8D7010EDBCF6C
:1007D000E9FF020EDBCFEAFF0E0EEB6A0F0EEB6AAB
:1007E0000101BC0E966F010E976F050EE15C02E2EF
:1007F000E16AE552E16EE552E5CFDAFFE7CFD9FFD6
:100800001200D9CFE6FFDACFE6FFE1CFD9FFE2CF82
:10081000DAFFE652E652C00EF214DF6E800ED014FC
:100820003F09F2160101225162E1010124515FE109
:10083000520E006E2C0E016E000E026E27C103F0E8
:10084000046A056A00500324F36E01500420F46E1C
:1008500002500520F86EF4CFF7FFF3CFF6FF080043
:10086000010EF5CFDBFF520E016E2C0E026E000E54
:10087000036E010EDB50EA6A280FE96E010EEA22D0
:10088000EFCF04F0056A066A01500424F36E0250AB
:100890000520F46E03500620F86EF4CFF7FFF3CF77
:1008A000F6FF0800F5CF00F0010EDB50080DF35005
:1008B00000240101266F010125510101265D17E089
:1008C00001012651E96EEA6AD890E936EA369C0EB3
:1008D000E926010EEA22EECF98F1EDCF99F1000161
:1008E000B02B000EB123B223B32311EC14F0DF5070
:1008F000F212E552E552E552E5CFDAFFE7CFD9FF34
:100900001200D9CFE6FFDACFE6FFE1CFD9FFE2CF81
:10091000DAFFE652FC0EDBCF1AF0FD0EDBCF1BF048
:10092000FC0E1AC0DBFFFD0E1BC0DBFFC00EF21475
:10093000DF6E800ED0143F09F21601012C2B000E41
:100940002D232E232F23DF50F212CCEC13F0EED701
:10095000E552E552E5CFDAFFE7CFD9FF1200D9CF54
:10096000E6FFDACFE6FFE1CFD9FFE2CFDAFF0A0EEA
:10097000E12402E3E168E652E16EFC0EDBCF1AF0FF
:10098000FD0EDBCF1BF0FC0E1AC0DBFFFD0E1BC003
:10099000DBFF0001BD5108E1C80EE66EE66ABFEC60
:1009A0000FF0E552E552F5D7B5C018F0B6C019F012
:1009B000B7C01AF0B8C01BF0640E1D6E1E6A1F6A25
:1009C000206A1AEC19F0050E18C0DBFF060E19C0DC
:1009D000DBFF070E1AC0DBFF080E1BC0DBFFC00EDB
:1009E000F214DF6E800ED0143F09F2162CC1B9F05C
:1009F0002DC1BAF02EC1BBF02FC1BCF0010E2CC12D
:100A0000DBFF020E2DC1DBFF030E2EC1DBFF040E48
:100A10002FC1DBFF01012C6B2D6B2E6B2F6BDF5079
:100A2000F212D950050FE96E000EDA20EA6ED88076
:100A3000000EEE54000EEE54000EEE54000EEE5476
:100A400042E2640E046E056A066A076A010EDBCF95
:100A500008F0020EDBCF09F0030EDBCF0AF0040E24
:100A6000DBCF0BF008C018F009C019F00AC01AF06B
:100A70000BC01BF0050EDBCF1DF0060EDBCF1EF00A
:100A8000070EDBCF1FF0080EDBCF20F01AEC19F0B9
:100A90001850045C006E19500558016E1A50065823
:100AA000026E1B500758036E090E00C0DBFF090ED3
:100AB000DBCF00F0003404E2090EDBCFB4F002D04B
:100AC0000001B46B1DD00001B46BB5C018F0B6C006
:100AD00019F0B7C01AF0B8C01BF0640E1D6E1E6A84
:100AE0001F6A206A1AEC19F0050E18C0DBFF060E0B
:100AF00019C0DBFF070E1AC0DBFF080E1BC0DBFFAF
:100B0000BCEC13F0640EE66EE66ABFEC0FF0E55243
:100B1000E55265D70A0EE15C02E2E16AE552E16E58
:100B2000E552E5CFDAFFE7CFD9FF1200D9CFE6FFD4
:100B3000DACFE6FFE1CFD9FFE2CFDAFFE652E652A5
:100B4000E652C00EF214DF6E800ED0143F09F2168A
:100B5000010E96C1DBFF020E97C1DBFFD950010FDA
:100B6000E96E000EDA20EA6EEE50ED1001E1AFD131
:100B7000010EDBCFE9FF020EDBCFEAFF0E0EE92606
:100B8000000EEA22EECF96F1EDCF97F1DF50F21290
:100B9000010EDBCFE9FF020EDBCFEAFFFB0EDBCF5E
:100BA000EEFFFC0EDBCFEDFF010EDBCFE9FF020E07
:100BB000DBCFEAFF150EE926000EEA22FD0EDBCFA1
:100BC000EFFF010EDBCFE9FF020EDBCFEAFF140ED1
:100BD000E926000EEA22EF6A010EDBCFE9FF020EE2
:100BE000DBCFEAFF120EEB6A130EEB6A010EDBCFCE
:100BF000E9FF020EDBCFEAFF020EE926000EEA2231
:100C0000F10EDBCFEEFFF20EDBCFEDFF010EDBCFFF
:100C1000E9FF020EDBCFEAFF060EE926000EEA220C
:100C2000F30EDBCFEEFFF40EDBCFEEFFF50EDBCFE6
:100C3000EEFFF60EDBCFEEFF010EDBCFE9FF020E7B
:100C4000DBCFEAFF040EE926000EEA22F90EDBCF25
:100C5000EEFFFA0EDBCFEDFF010EDBCFE9FF020E58
:100C6000DBCFEAFF0A0EE926000EEA22EF0EDBCF09
:100C7000EEFFF00EDBCFEDFF010EDBCFE9FF020E42
:100C8000DBCFEAFF0C0EE926000EEA22F70EDBCFDF
:100C9000EEFFF80EDBCFEDFF010EDBCFE9FF020E1A
:100CA000DBCFEAFF1A0EE926000EEA22EF6AFD0EFC
:100CB000DB40E840E8401F0BE66E010EDBCFE9FFAA
:100CC000020EDBCFEAFF170EE926000EEA22E552FC
:100CD000E750EF6E4A0E006E2C0E016E000E026E93
:100CE000010EDBCFE9FF020EDBCFEAFF170EE9268C
:100CF000000EEA22EFCF03F0046A056A00500324D5
:100D0000F36E01500420F46E02500520F86EF4CF0B
:100D1000F7FFF3CFF6FF0800F550E66E010EDBCFCC
:100D2000E9FF020EDBCFEAFF190EE926000EEA22E8
:100D3000E552E750EF6EFD0EDB50070BE66E010E3D
:100D4000DBCFE9FF020EDBCFEAFF160EE926000E2D
:100D5000EA22E552E750EF6E4A0E006E2C0E016E4D
:100D6000000E026E010EDBCFE9FF020EDBCFEAFFC1
:100D7000160EE926000EEA22EFCF03F0046A056A98
:100D800000500324F36E01500420F46E025005203D
:100D9000F86EF4CFF7FFF3CFF6FF0800F550E66EDC
:100DA000010EDBCFE9FF020EDBCFEAFF180EE926CA
:100DB000000EEA22E552E750EF6E010EDBCFE6FFB0
:100DC000020EDBCFE6FFBEEC13F0E552E552010E5A
:100DD000DBCFE6FF020EDBCFE6FF9EEC13F0E55221
:100DE000E552C00EF214DF6E800ED0143F09F216E9
:100DF000FD0EEA6ADB34FE0BEA36E96E9C0EE9264C
:100E0000010EEA22010EDBCFEEFF020EDBCFEDFF7B
:100E1000010EDBCFE9FF020EDBCFEAFF0E0EE92663
:100E2000000EEA229AC1EEFF9BC1EDFF010EDBCF5F
:100E3000E9FF020EDBCFEAFF100EEB6A110EEB6A40
:100E400001019A519B110EE09AC1E9FF9BC1EAFF93
:100E5000100EE926000EEA22010EDBCFEEFF020E95
:100E6000DBCFEDFF010EDBCF9AF1020EDBCF9BF162
:100E7000010EDBCFE9FF020EDBCFEAFF190EE926F8
:100E8000000EEA22EF5001012713010EDBCFE9FF2C
:100E9000020EDBCFEAFF180EE926000EEA22EFCFA2
:100EA00000F0010EDBCFE9FF020EDBCFEAFF170EE9
:100EB000E926000EEA22EF50EA6A280FE96E010ED9
:100EC000EA220050EF12DF50F212000E04D0DF5081
:100ED000F212460E00D0E552E552E552E552E5CF5A
:100EE000DAFFE7CFD9FF1200D9CFE6FFDACFE6FF6E
:100EF000E1CFD9FFE2CFDAFF070EE12402E3E16898
:100F0000E652E16EFD0EDBCF00F0016A026A036A71
:100F1000D8900350000A08E60F0E005C000E01583E
:100F2000000E0258000E035804E3FD0EDB50FF08CC
:100F300013E1FC0EDBCF04F0056A066A076AD8905D
:100F40000750000A08E60F0E045C000E0558000E5C
:100F50000658000E075802E32A0E6DD1C00EF21497
:100F6000DF6E800ED0143F09F216FC0EEA6ADB3405
:100F7000FE0BEA36E96E9C0EE926010EEA22EE50DF
:100F8000ED1005E0DF50F212280E55D154D1FC0EC1
:100F9000EA6ADB34FE0BEA36E96E9C0EE926010EA6
:100FA000EA22010EEE6EED6ADF50F212FC0EDB401B
:100FB000E840E8401F0BE76E040EE7CFDBFF4A0E68
:100FC000006E2C0E016E000E026E040EDBCF03F0DD
:100FD000046A056A00500324F36E01500420F46E85
:100FE00002500520F86EF4CFF7FFF3CFF6FF0800AC
:100FF000060EF5CFDBFFFC0EDB50070BE76E030E92
:10100000E7CFDBFF4A0E006E2C0E016E000E026E63
:10101000030EDBCF03F0046A056A00500324F36E6D
:1010200001500420F46E02500520F86EF4CFF7FF53
:10103000F3CFF6FF0800050EF5CFDBFFC00EF2146C
:10104000DF6E800ED0143F09F216FD0EDB50FF0854
:101050000AE194C1E9FF95C1EAFF150EEB50E76E76
:10106000FD0EE7CFDBFFFD0EEA6ADB34FE0BEA364E
:10107000E96E9C0EE926010EEA22010EEECFDBFF9F
:10108000020EEDCFDBFFD950010FE96E000EDA2022
:10109000EA6EEE50ED1001E1BED0FD0EEA6ADB34DF
:1010A000FE0BEA36E96E9C0EE926010EEA22EE6A94
:1010B000ED6A010EDBCFE9FF020EDBCFEAFF180E6F
:1010C000E926000EEA22EFCF00F0010EDBCFE9FFA8
:1010D000020EDBCFEAFF170EE926000EEA22EF50E0
:1010E000EA6A280FE96E010EEA22EF5000143BE095
:1010F000010EDBCFE9FF020EDBCFEAFF180EE92677
:10110000000EEA22EF1C006E010EDBCFE9FF020E9B
:10111000DBCFEAFF170EE926000EEA22EF50EA6A5B
:10112000280FE96E010EEA220050EF16EF500DE194
:10113000010EDBCFE9FF020EDBCFEAFF190EE92635
:10114000000EEA22EF1C01012717060EDB500101F9
:101150002713040EDB50EA6A280FE96E010EEA221B
:10116000050EDB50EF12FC0EEA6ADB34FE0BEA36AA
:10117000E96E9C0EE926010EEA22010EDBCFEEFF9E
:10118000020EDBCFEDFF010EDBCFE9FF020EDBCF5E
:10119000EAFF150EE926000EEA22FC0EDBCFEFFF78
:1011A000010EDBCFE9FF020EDBCFEAFF170EE926C7
:1011B000000EEA22040EDBCFEFFF010EDBCFE9FFCA
:1011C000020EDBCFEAFF160EE926000EEA22030E1E
:1011D000DBCFEFFF010EDBCFE9FF020EDBCFEAFF33
:1011E000190EE926000EEA22060EDBCFEFFF010EF4
:1011F000DBCFE9FF020EDBCFEAFF180EE926000E77
:10120000EA22050EDBCFEFFFDF50F21201EC04F013
:10121000000E11D010D0FC0EEA6ADB34FE0BEA3669
:10122000E96E9C0EE926010EEA22EE6AED6ADF50B5
:10123000F212290E00D0006E070EE15C02E2E16AB4
:10124000E552E16E0050E552E5CFDAFFE7CFD9FF76
:101250001200D9CFE6FFDACFE6FFE1CFD9FFE2CF28
:10126000DAFFE652E652E652E652F60EDBCF00F027
:10127000016A026A036A0334000E031809E6D88083
:101280000F0E0054000E0154000E0254000E0354C1
:1012900002E22A0EA3D0C00EF214DF6E800ED0142C
:1012A0003F09F216F60EEA6ADB34FE0BEA36E96E07
:1012B0009C0EE926010EEA22EE50ED1001E08AD0E4
:1012C000F60EEA6ADB34FE0BEA36E96E9C0EE9267E
:1012D000010EEA22010EEE6EED6ADF50F212000EF0
:1012E000E66EE66AF70EDBCFE6FFF80EDBCFE6FF31
:1012F000F90EDBCFE6FFFA0EDBCFE6FFFB0EDBCF0E
:10130000E6FFFC0EDBCFE6FFFD0EDBCFE6FF94EC45
:1013100012F0006E090EE15C02E2E16AE552E16E54
:101320000050DE52F3CFDEFFF4CFDDFFDD52000EC2
:10133000E66EE66A000EE66EE66AE66AE66AE66A67
:10134000E66A000EE66EE66A000EE66EE66A010EDA
:10135000DBCFE6FF020EDBCFE6FFF60EDBCFE6FFCC
:1013600096EC05F0006E0F0EE15C02E2E16AE552D8
:10137000E16E0050E76E030EE7CFDBFF030EDB509C
:1013800011E1C00EF214DF6E800ED0143F09F21688
:1013900001012B2BDF50F21201012A0502E101ECC1
:1013A00004F015D0C00EF214DF6E800ED0143F0989
:1013B000F216F60EEA6ADB34FE0BEA36E96E9C0E94
:1013C000E926010EEA22EE6AED6ADF50F212030E00
:1013D000DB5004D0DF50F212280E00D0006E040E55
:1013E000E15C02E2E16AE552E16E0050E552E5CFD0
:1013F000DAFFE7CFD9FF1200D9CFE6FFDACFE6FF59
:10140000E1CFD9FFE2CFDAFFE652E652E652E652EA
:10141000F60EDBCF00F0016A026A036A0334000EA5
:10142000031809E6D8800F0E0054000E0154000E78
:101430000254000E035402E22A0EDBD0C00EF21456
:10144000DF6E800ED0143F09F216F60EEA6ADB3426
:10145000FE0BEA36E96E9C0EE926010EEA22EE50FA
:10146000ED1001E0C2D0F60EEA6ADB34FE0BEA367C
:10147000E96E9C0EE926010EEA22010EEE6EED6A7F
:10148000DF50F212EA0EDB50010B04E1EA0EDB50F2
:10149000020B17E0EE0EDBCFE6FFEF0EDBCFE6FF31
:1014A000E66AF70EDBCFE6FFF80EDBCFE6FF95EC42
:1014B00019F0006E050EE15C02E2E16AE552E16EB0
:1014C0000050EA0EDBCFE6FFEB0EDBCFE6FFF70EB8
:1014D000DBCFE6FFF80EDBCFE6FFF90EDBCFE6FF52
:1014E000FA0EDBCFE6FFFB0EDBCFE6FFFC0EDBCF19
:1014F000E6FFFD0EDBCFE6FF94EC12F0006E090E66
:10150000E15C02E2E16AE552E16E0050DE52F3CFA7
:10151000DEFFF4CFDDFFDD52EA0EDBCFE6FFEB0EA0
:10152000DBCFE6FFEC0EDBCFE6FFED0EDBCFE6FF19
:10153000D950EE0FE96EFF0EDA20EA6EEECFE6FF2D
:10154000EECFE6FFEECFE6FFEFCFE6FFF40EDBCF08
:10155000E6FFF50EDBCFE6FFF20EDBCFE6FFF30E84
:10156000DBCFE6FF010EDBCFE6FF020EDBCFE6FFAF
:10157000F60EDBCFE6FF96EC05F0006E0F0EE15C99
:1015800002E2E16AE552E16E0050E76E030EE7CF3A
:10159000DBFF030EDB5011E1C00EF214DF6E800E94
:1015A000D0143F09F21601012B2BDF50F21201017A
:1015B0002A0502E101EC04F015D0C00EF214DF6E32
:1015C000800ED0143F09F216F60EEA6ADB34FE0BE9
:1015D000EA36E96E9C0EE926010EEA22EE6AED6A11
:1015E000DF50F212030EDB5004D0DF50F212280E4F
:1015F00000D0006E040EE15C02E2E16AE552E16EA9
:101600000050E552E5CFDAFFE7CFD9FF1200D9CF7E
:10161000E6FFDACFE6FFE1CFD9FFE2CFDAFFE6520D
:10162000E652E652E65201012251000802E23F0E64
:1016300068D1FD0EDBCF00F0016A026A036A0F0E6B
:10164000001805E1015003E1025001E1035002E1FD
:101650003D0E57D1FD0EDBCF00F0016A026A036A2E
:10166000D8900350000A08E60F0E005C000E0158E7
:10167000000E0258000E035806E3FD0EDB50FF0873
:1016800002E02A0E3ED1C00EF214DF6E800ED0149E
:101690003F09F216FD0EDB50FF080AE194C1E9FF95
:1016A00095C1EAFF150EEB50E76EFD0EE7CFDBFFAD
:1016B000FD0EEA6ADB34FE0BEA36E96E9C0EE92683
:1016C000010EEA22010EEECFDBFF020EEDCFDBFFB3
:1016D000D950010FE96E000EDA20EA6EEE50ED10DF
:1016E00001E10BD1010EDBCFE9FF020EDBCFEAFFF8
:1016F000180EE926000EEA22EF1C006E010EDBCF69
:10170000E9FF020EDBCFEAFF170EE926000EEA2200
:10171000EF50EA6A280FE96E010EEA220050EF1638
:10172000EF500DE1010EDBCFE9FF020EDBCFEAFF48
:10173000190EE926000EEA22EF1C01012717010EFF
:10174000DBCFE9FF020EDBCFEAFF120EEB6A130ECE
:10175000EB6A010EDBCFE9FF020EDBCFEAFF140ECE
:10176000E926000EEA22EF6A01012451006E016AA7
:10177000D890015004E6FF0E005C000E015802E212
:101780000101242BDF50F21297EC02F0C00EF2148C
:10179000DF6E800ED0143F09F216010124510008BB
:1017A00002E201012407010EDBCFE6FF020EDBCFD0
:1017B000E6FFACEC13F0E552E55201012B07FD0EFC
:1017C000EA6ADB34FE0BEA36E96E9C0EE926010E6E
:1017D000EA22EE6AED6A010EDBCFE9FF020EDBCFF3
:1017E000EAFF100EE926000EEA22EE50ED1023E18A
:1017F000010EDBCFE9FF020EDBCFEAFF0E0EE9267A
:10180000000EEA22EE50EFCFEAFFE96E100EE92655
:10181000000EEA22EE6AED6A010EDBCFE9FF020E4E
:10182000DBCFEAFF0E0EE926000EEA22EECF9AF198
:10183000EDCF9BF148D0010EDBCFE9FF020EDBCFED
:10184000EAFF0E0EE926000EEA22EECF00F0EFCFFF
:1018500001F0010EDBCFE9FF020EDBCFEAFF100E35
:10186000E926000EEA22EE50EFCFEAFFE96E0E0EF7
:10187000E926000EEA2200C0EEFF01C0EDFF010ED6
:10188000DBCFE9FF020EDBCFEAFF100EE926000EE8
:10189000EA22EECF00F0EFCF01F0010EDBCFE9FF3F
:1018A000020EDBCFEAFF0E0EE926000EEA22EE5012
:1018B000EFCFEAFFE96E100EE926000EEA2200C023
:1018C000EEFF01C0EDFF010EDBCFE9FF020EDBCF23
:1018D000EAFF0E0EE926000EEA2296C1EEFF97C13E
:1018E000EDFF010EDBCF96F1020EDBCF97F1DF505B
:1018F000F21201EC04F0000E04D0DF50F2123C0EA4
:1019000000D0006E040EE15C02E2E16AE552E16E95
:101910000050E552E5CFDAFFE7CFD9FF1200D9CF6B
:10192000E6FFDACFE6FFE1CFD9FFE2CFDAFFE652FA
:10193000E652E652E652E652FD0EDBCF00F0016AB7
:10194000026A036A0F0E001805E1015003E102501C
:1019500001E1035002E13D0E6CD0FD0EDBCF00F043
:10196000016A026A036AD8900350000A08E60F0E63
:10197000005C000E0158000E0258000E035806E3EA
:10198000FD0EDB50FF0802E02A0E53D0FD0EDB50A7
:10199000FF0816E1C00EF214DF6E800ED0143F096E
:1019A000F21694C1E9FF95C1EAFF1A0EEB50E76EFB
:1019B000010EE7CFDBFFDF50F212010EDB5039D012
:1019C000C00EF214DF6E800ED0143F09F216FD0E29
:1019D000EA6ADB34FE0BEA36E96E9C0EE926010E5C
:1019E000EA22030EEECFDBFF040EEDCFDBFFD95072
:1019F000030FE96E000EDA20EA6EEE50ED100FE0F4
:101A0000030EDBCFE9FF040EDBCFEAFF1A0EE92657
:101A1000000EEA223E0EEF6E020EDB6A05D00B0EC0
:101A2000F36E020EF3CFDBFFDF50F212020EDB503B
:101A300000D0006E050EE15C02E2E16AE552E16E63
:101A40000050E552E5CFDAFFE7CFD9FF1200D9CF3A
:101A5000E6FFDACFE6FFE1CFD9FFE2CFDAFFE652C9
:101A6000E652E652FD0EDBCF00F0016A026A036A1D
:101A7000D8900350000A08E60F0E005C000E0158D3
:101A8000000E0258000E035802E32A0E83D0C00E47
:101A9000F214DF6E800ED0143F09F216FD0EEA6AD2
:101AA000DB34FE0BEA36E96E9C0EE926010EEA22D3
:101AB000010EEECFDBFF020EEDCFDBFFD950010FA1
:101AC000E96E000EDA20EA6EEE50ED1004E1DF5010
:101AD000F212640E5FD0010EDBCFE9FF020EDBCF06
:101AE000EAFF140EE926000EEA22EF50080B4EE042
:101AF000010EDBCFE9FF020EDBCFEAFF140EE92671
:101B0000000EEA22EF96EF503DE1010EDBCFE9FF38
:101B1000020EDBCFEAFF120EE926000EEA22EE509B
:101B2000ED1030E1010EDBCFE9FF020EDBCFEAFF63
:101B3000190EE926000EEA22EF5001012713010ECB
:101B4000DBCFE9FF020EDBCFEAFF180EE926000E1D
:101B5000EA22EFCF00F0010EDBCFE9FF020EDBCF70
:101B6000EAFF170EE926000EEA22EF50EA6A280F74
:101B7000E96E010EEA220050EF12DF50F21201EC82
:101B800004F002D0DF50F212000E04D0DF50F21247
:101B9000650E00D0E552E552E552E552E5CFDAFF99
:101BA000E7CFD9FF1200D9CFE6FFDACFE6FFE1CFCA
:101BB000D9FFE2CFDAFF0D0EE12402E3E168E6523D
:101BC000E16EFD0EDBCF00F0016A026A036A0334A6
:101BD000000E031809E6D8800F0E0054000E0154C1
:101BE000000E0254000E035406E2FD0EDB50FF0807
:101BF00002E02A0EEAD0FB0EDBCFE9FFFC0EDBCFC2
:101C0000EAFFEE6AEE6AEE6AEE6AFB0EDBCFE9FFF0
:101C1000FC0EDBCFEAFF040EE926000EEA22EE6A94
:101C2000EE6AEE6AEE6AC00EF214DF6E800ED01419
:101C30003F09F216FD0EDB50FF080AE194C1E9FFEF
:101C400095C1EAFF150EEB50E76EFD0EE7CFDBFF07
:101C5000FD0EEA6ADB34FE0BEA36E96E9C0EE926DD
:101C6000010EEA22010EEECFDBFF020EEDCFDBFF0D
:101C7000D950010FE96E000EDA20EA6EEE50ED1039
:101C800004E1DF50F2120B0EA0D0010EDBCFE9FF12
:101C9000020EDBCFEAFF0A0EE926000EEA22EECFA3
:101CA00000F0EFCF01F00050010B04E1DF50F21221
:101CB000820E8BD0050EDB6A060EDB6A070EDB6A2E
:101CC000080EDB6A010EDBCFE9FF020EDBCFEAFF75
:101CD000060EE926000EEA22090EEECFDBFF0A0E01
:101CE000EECFDBFF0B0EEECFDBFF0C0EEECFDBFFFC
:101CF000010EDBCFE9FF020EDBCFEAFF040EE9267F
:101D0000000EEA22030EEECFDBFF040EEDCFDBFF69
:101D1000DF50F212030EDBCFE9FFDB06040EDBCF50
:101D2000EAFF01E2DB06EF500CE1D950050FE96E46
:101D3000000EDA20EA6EEE2A000EEE22EE22EE22ED
:101D4000E9D7FB0EDBCFE9FFFC0EDBCFEAFF050E88
:101D5000DBCFEEFF060EDBCFEEFF070EDBCFEEFF95
:101D6000080EDBCFEEFF090EDBCF04F00A0EDBCF4F
:101D700005F00B0EDBCF06F00C0EDBCF07F0D950D1
:101D8000050FE96E000EDA20EA6EEE50045C006E7C
:101D9000EE500558016EEE500658026EEE50075890
:101DA000036EFB0EDBCFE9FFFC0EDBCFEAFF040E78
:101DB000E926000EEA2200C0EEFF01C0EEFF02C0DD
:101DC000EEFF03C0EEFF000E00D0006E0D0EE15CD2
:101DD00002E2E16AE552E16E0050E552E5CFDAFF3A
:101DE000E7CFD9FF1200D9CFE6FFDACFE6FFE1CF88
:101DF000D9FFE2CFDAFFE652E652E652E652FD0E96
:101E0000DBCF00F0016A026A036A0F0E001805E1D9
:101E1000015003E1025001E1035002E15B0EA1D049
:101E2000FD0EDBCF00F0016A026A036AD89003500E
:101E3000000A08E60F0E005C000E0158000E025862
:101E4000000E035806E3FD0EDB50FF0802E02A0EE9
:101E500088D0C00EF214DF6E800ED0143F09F21647
:101E6000FD0EDB50FF080EE194C1E9FF95C1EAFFCA
:101E7000150EEB50E76EFD0EE7CFDBFFDE52010ED5
:101E8000DD6E11D094C1E9FF95C1EAFF150EEB504C
:101E9000F36EFD0EDB50F35C04E1DE52010EDD6EED
:101EA00002D0010EDB6AFD0EEA6ADB34FE0BEA3675
:101EB000E96E9C0EE926010EEA22020EEECFDBFF50
:101EC000030EEDCFDBFFD950020FE96E000EDA20D2
:101ED000EA6EEE50ED1004E1DF50F2125A0E41D0DE
:101EE000020EDBCFE9FF030EDBCFEAFF180EE92677
:101EF000000EEA22EF1C006E020EDBCFE9FF030E9C
:101F0000DBCFEAFF170EE926000EEA22EF50EA6A5D
:101F1000280FE96E010EEA220050EF16EF500DE196
:101F2000020EDBCFE9FF030EDBCFEAFF190EE92635
:101F3000000EEA22EF1C01012717020EDBCFE9FF9A
:101F4000030EDBCFEAFF140EE926000EEA22EF862D
:101F5000DF50F212010EDB0402E101EC04F0000E8E
:101F600000D0006E040EE15C02E2E16AE552E16E2F
:101F70000050E552E5CFDAFFE7CFD9FF1200D9CF05
:101F8000E6FFDACFE6FFE1CFD9FFE2CFDAFFE65294
:101F9000D950FC0FE96EFF0EDA20EA6E000ED880F1
:101FA000EE54000EED5439E2C00EF214DF6E800ED6
:101FB000D0143F09F21694C1E9FF95C1EAFF180E4B
:101FC000EB50E81C006E94C1E9FF95C1EAFF170EC3
:101FD000EB50EA6A280FE96E010EEA220050EF1674
:101FE000EF5009E194C1E9FF95C1EAFF190EEB50EA
:101FF000E81C0101271794C1E9FF95C1EAFF120E01
:10200000E926000EEA22FC0EDBCFEEFFFD0EDBCF51
:10201000EDFFDF50F21201EC04F0E552E552E5CF9E
:10202000DAFFE7CFD9FF1200D9CFE6FFDACFE6FF1C
:10203000E1CFD9FFE2CFDAFF060EE12402E3E16847
:10204000E652E16EFD0EDB50000815E3FC0EDB509E
:10205000000811E3FB0EDB5000080DE3D950F90F27
:10206000E96EFF0EDA20EA6E000ED880EE54000E04
:10207000ED5401E337D1FC0EDB503B0802E2510E78
:1020800033D1FB0EDB503B0802E2520E2DD1D9506A
:10209000F90FE96EFF0EDA20EA6EE70ED880EE54F3
:1020A000030EED5402E2530E1FD1FD0EDBCF04F000
:1020B000056A066A076A100E1D6E0E0E1E6E1F6AF6
:1020C000206A04C018F005C019F006C01AF007C055
:1020D0001BF0A9EC17F014C004F015C005F016C0F1
:1020E00006F017C007F0FC0EDBCF08F0096A0A6A99
:1020F0000B6A3C0E1D6E1E6A1F6A206A08C018F02B
:1021000009C019F00AC01AF00BC01BF0A9EC17F0B7
:1021100014C008F015C009F016C00AF017C00BF083
:1021200008500426095005220A5006220B500722A7
:10213000FB0EDBCF0CF00D6A0E6A0F6A04500C2404
:10214000006E05500D20016E06500E20026E0750E5
:102150000F20036E640E1D6E1E6A1F6A206A00C087
:1021600018F001C019F002C01AF003C01BF0A9EC6E
:1021700017F014C000F015C001F016C002F017C02F
:1021800003F0F90EDBCF10F0FA0EDBCF11F0126A7C
:10219000136A050E1026000E1122000E1222000EE8
:1021A0001322640E1D6E1E6A1F6A206A10C018F08A
:1021B00011C019F012C01AF013C01BF0A9EC17F0EF
:1021C00014C010F015C011F016C012F017C013F0B3
:1021D000E80E1D6E030E1E6E1F6A206A10C018F0F6
:1021E00011C019F012C01AF013C01BF01AEC19F04C
:1021F00018C010F019C011F01AC012F01BC013F073
:1022000010500026115001221250022213500322B6
:1022100000C0DFFF010E01C0DBFF020E02C0DBFFCA
:10222000030E03C0DBFFD9CFE9FFDACFEAFFEECF21
:1022300018F0EECF19F0EECF1AF0EFCF1BF01D6AB9
:102240001E6A010E1F6E206A1AEC19F0040E18C0E7
:10225000DBFF050E19C0DBFFD9CFE9FFDACFEAFFBC
:10226000EECF18F0EECF19F0EECF1AF0EFCF1BF053
:102270001D6A1E6A010E1F6E206A1AEC19F014C046
:10228000DEFF15C0DEFF16C0DEFF17C0DDFFDD522A
:10229000DD52000EDBCFE6FF010EDBCFE6FF6FDE87
:1022A000E552E552D950040FE96E000EDA20EA6ECD
:1022B000000ED880EE54000EED5412E2E66A800E55
:1022C000E66E5DDEE552E552E66A800EE66E57DEAA
:1022D000E552E552040EDB06050E01E2DB06E2D70D
:1022E000000E02D0540E00D0006E060EE15C02E239
:1022F000E16AE552E16E0050E552E5CFDAFFE7CF43
:10230000D9FF1200D9CFE6FFDACFE6FFE1CFD9FF40
:10231000E2CFDAFFE652E652E652FD0EDBCF00F0E6
:10232000016A026A036AD8900350000A08E60F0E99
:10233000005C000E0158000E0258000E035802E324
:102340002A0E81D0C00EF214DF6E800ED0143F0929
:10235000F216FD0EEA6ADB34FE0BEA36E96E9C0EDD
:10236000E926010EEA22010EEECFDBFF020EEDCFD1
:10237000DBFFD950010FE96E000EDA20EA6EEE5055
:10238000ED105DE0010EDBCFE9FF020EDBCFEAFFCF
:10239000120EE926000EEA22EE50ED104CE0010E7E
:1023A000DBCFE9FF020EDBCFEAFF120EEB6A130E62
:1023B000EB6A010EDBCFE9FF020EDBCFEAFF140E62
:1023C000E926000EEA22EF50080B30E1010EDBCFC8
:1023D000E9FF020EDBCFEAFF190EE926000EEA2222
:1023E000EF5001012713010EDBCFE9FF020EDBCF17
:1023F000EAFF180EE926000EEA22EFCF00F0010EE8
:10240000DBCFE9FF020EDBCFEAFF170EE926000E55
:10241000EA22EF50EA6A280FE96E010EEA22005024
:10242000EF12DF50F21201EC04F002D0DF50F21292
:10243000000E09D004D0DF50F212500E04D0DF504D
:10244000F2120B0E00D0E552E552E552E552E5CF0F
:10245000DAFFE7CFD9FF1200D9CFE6FFDACFE6FFE8
:10246000E1CFD9FFE2CFDAFFE652E652E652E6527A
:10247000E652C00EF214DF6E800ED0143F09F21641
:10248000010E00C3DBFF020E01C3DBFF030E02C31C
:10249000DBFF040E03C3DBFFDF50F212010EDBCFC4
:1024A00000F0020EDBCF01F0030EDBCF02F0040ED2
:1024B000DBCF03F000C018F001C019F002C01AF021
:1024C00003C01BF000D0050EE15C02E2E16AE552B8
:1024D000E16EE552E5CFDAFFE7CFD9FF1200D9CFA1
:1024E000E6FFDACFE6FFE1CFD9FFE2CFDAFFE6522F
:1024F000C00EF214DF6E800ED0143F09F216FA0EF1
:10250000DBCF00F3FB0EDBCF01F3FC0EDBCF02F3DE
:10251000FD0EDBCF03F3DF50F212E552E552E5CFBB
:08252000DAFFE7CFD9FF12003A
:08252800D9CFE6FFDACFE6FF90
:10253000E1CFD9FFE2CFDAFFE652E652F70EDBCF6A
:10254000DEFFDBCFDDFFDFCFE9FFDF2A010EDBCFD0
:10255000EAFF01E3DB2AF90EDBCFEFFFDFCFE9FF74
:10256000DF2A010EDBCFEAFF01E3DB2AFA0EDBCF25
:10257000EFFFDFCFE9FFDF2A010EDBCFEAFF01E348
:10258000DB2AEF68DFCFE9FFDF2A010EDBCFEAFFAE
:1025900001E3DB2A1A0EEF6EDFCFE9FFDF2A010E1F
:1025A000DBCFEAFF01E3DB2A1B0EEF6EDFCFE9FF93
:1025B000DF2A010EDBCFEAFF01E3DB2A1C0EEF6E00
:1025C000DFCFE9FFDF2A010EDBCFEAFF01E3DB2AE1
:1025D0001D0EEF6EDFCFE9FFDF2A010EDBCFEAFF32
:1025E00001E3DB2A1E0EEF6EDFCFE9FFDF2A010ECB
:1025F000DBCFEAFF01E3DB2A1F0EEF6EDFCFE9FF3F
:10260000DF2A010EDBCFEAFF01E3DB2A2A0EEF6EA1
:10261000DFCFE9FFDF2A010EDBCFEAFF01E3DB2A90
:102620002B0EEF6EDFCFE9FFDF2A010EDBCFEAFFD3
:1026300001E3DB2A2C0EEF6EDFCFE9FFDF2A010E6C
:10264000DBCFEAFF01E3DB2A2D0EEF6EDFCFE9FFE0
:10265000DF2A010EDBCFEAFF01E3DB2A2E0EEF6E4D
:10266000DFCFE9FFDF2A010EDBCFEAFF01E3DB2A40
:102670002F0EEF6EDFCFE9FFDF2A010EDBCFEAFF7F
:1026800001E3DB2A3A0EEF6EDFCFE9FFDF2A010E0E
:10269000DBCFEAFF01E3DB2A3B0EEF6EDFCFE9FF82
:1026A000DF2A010EDBCFEAFF01E3DB2A3C0EEF6EEF
:1026B000DFCFE9FFDF2A010EDBCFEAFF01E3DB2AF0
:1026C0003D0EEF6EDFCFE9FFDF2A010EDBCFEAFF21
:1026D00001E3DB2AFB0EDBCFEFFFDFCFE9FFDF2AD1
:1026E000010EDBCFEAFF01E3DB2AFC0EDBCFEFFFBD
:1026F000DFCFE9FFDF2A010EDBCFEAFF01E3DB2AB0
:10270000FD0EDBCFEFFFDFCFE9FFDF2A010EDBCFCE
:10271000EAFF01E3DB2A010EEF6EDECF00F0DDCF32
:1027200001F000C0F3FF01C0F4FF00D0E552E55214
:10273000E552E5CFDAFFE7CFD9FF1200D9CFE6FFA8
:10274000DACFE6FFE1CFD9FFE2CFDAFFE552E5CFFE
:10275000DAFFE7CFD9FF1200D9CFE6FFDACFE6FFE5
:10276000E1CFD9FFE2CFDAFFE552E5CFDAFFE7CFDD
:10277000D9FF12000400120012001200D9CFE6FFA8
:10278000DACFE6FFE1CFD9FFE2CFDAFFE552E5CFBE
:10279000DAFFE7CFD9FF1200120012001200EADFC1
:1027A0000101010E2A6F98C1E9FF99C1EAFFEECF3E
:1027B000E1FFEDCFE2FF1F0EFC1402E00600FBD7A5
:1027C000FC5001E0FC6AE552E550E96E0500E55079
:1027D000FF6EE550FE6EE550FD6EE906F7E1E5CFD0
:1027E0001BF0E5CF1AF0E5CF19F0E5CF18F0E5CFF3
:1027F000F4FFE5CFF3FFE5CFF8FFE5CFF7FFE5CF37
:10280000F6FFE5CFDAFFE7CFD9FFE552E5CFEAFFE4
:10281000E5CFE9FFE550E5CFE0FFE5CFD8FF1000B9
:102820001200800ED0143F09F216D8CFE4FFE0CF9B
:10283000E4FFE46EE9CFE4FFEACFE4FFE652D9CF4C
:10284000E6FFDACFE6FFF6CFE6FFF7CFE6FFF8CFF9
:10285000E6FFF3CFE6FFF4CFE6FF18C0E6FF19C0AE
:10286000E6FF1AC0E6FF1BC0E6FFE96A1F0EFC1474
:1028700009E0FDCFE6FFFECFE6FFFFCFE6FF060053
:10288000E92AF4D7E9CFE6FFFC5001E0FC6A94C1E5
:10289000E9FF95C1EAFFE1CFEEFFE2CFEDFF6ADF8E
:1028A00098C194F199C195F126C125F198C1E9FF2C
:1028B00099C1EAFFEECFE1FFEDCFE2FFE552E5502F
:1028C000E96E0500E550FF6EE550FE6EE550FD6EC9
:1028D000E906F7E1E5CF1BF0E5CF1AF0E5CF19F0F7
:1028E000E5CF18F0E5CFF4FFE5CFF3FFE5CFF8FF34
:1028F000E5CFF7FFE5CFF6FFE5CFDAFFE7CFD9FF6A
:10290000E552E5CFEAFFE5CFE9FFE550E5CFE0FF8F
:10291000E5CFD8FF10001200D8CFE4FFE0CFE4FFEE
:10292000E46EE9CFE4FFEACFE4FFE652D9CFE6FF59
:10293000DACFE6FFF6CFE6FFF7CFE6FFF8CFE6FF08
:10294000F3CFE6FFF4CFE6FF18C0E6FF19C0E6FFBD
:102950001AC0E6FF1BC0E6FF0101222BF4EC19F0C0
:1029600039EC00F0E552E5CF1BF0E5CF1AF0E5CFEA
:1029700019F0E5CF18F0E5CFF4FFE5CFF3FFE5CF91
:10298000F8FFE5CFF7FFE5CFF6FFE5CFDAFFE7CFBA
:10299000D9FFE552E5CFEAFFE5CFE9FFE550E5CF06
:1029A000E0FFE5CFD8FF1000120006000600E55258
:1029B000E552E552E96A1F0EFC1409E0FDCFE6FF7F
:1029C000FECFE6FFFFCFE6FF0600E92AF4D7E9CF06
:1029D000E6FFFC5001E0FC6A94C1E9FF95C1EAFF03
:1029E000E1CFEEFFE2CFEDFFC5DE98C194F199C1D2
:1029F00095F126C125F198C1E9FF99C1EAFFEECF13
:102A0000E1FFEDCFE2FF1F0EFC1402E00600FBD752
:102A1000FC5001E0FC6AE552E550E96E0500E55026
:102A2000FF6EE550FE6EE550FD6EE906F7E1E5CF7D
:102A30001BF0E5CF1AF0E5CF19F0E5CF18F0E5CFA0
:102A4000F4FFE5CFF3FFE5CFF8FFE5CFF7FFE5CFE4
:102A5000F6FFE5CFDAFFE7CFD9FFE552E5CFEAFF92
:102A6000E5CFE9FFE550E5CFE0FFE5CFD8FF100067
:022A7000120052
:0E2A7200000000000000000000000000000056
:102A80000000010EE66E01EC1AF0E55212000F0E86
:102A9000E66EC6EC19F0E5521200050EE66EC6ECC5
:102AA00019F0E5521200D9CFE6FFDACFE6FFE1CF09
:102AB000D9FFE2CFDAFF93920401B65124E13EEC54
:102AC00019F0000901E0FBD7E66AE1EC17F0E552E6
:102AD000940EE66E040EE66E9BEC18F0E552E5529D
:102AE0008172000EE66EE66A010EE66EE66AE66A3E
:102AF00014EC10F0006E050EE15C02E2E16AE552B2
:102B0000E16E0050D9D7E66807EC0BF0E552E552CC
:102B1000E5CFDAFFE7CFD9FF1200D9CFE6FFDACF52
:102B2000E6FFE1CFD9FFE2CFDAFF93940401B6517B
:102B30001BE13EEC19F0000901E0FBD7100EE66E38
:102B4000E1EC17F0E552A50EE66E040EE66E9BEC86
:102B500018F0E552E5528174C80EE66EE66ABFECE5
:102B60000FF0E552E552E2D7E66807EC0BF0E552CC
:102B7000E552E5CFDAFFE7CFD9FF1200F29E1CEC59
:102B800000F09F0EE66E79EC19F0E552190EE66E34
:102B9000110EE66E5DEC19F0E552E552E66A040EA0
:102BA000E66E030EE66E000EE66EE66AA60EE66EB2
:102BB0002A0EE66E000EE66E29EC09F0006E080E95
:102BC000E15C02E2E16AE552E16E0050010EE66E60
:102BD000CC0EE66E030EE66E000EE66EE66A1A0E88
:102BE000E66E2B0EE66E000EE66E29EC09F0006E26
:102BF000080EE15C02E2E16AE552E16E00502B0E44
:102C0000E66EA9EC16F0E5523EEC19F0000901E081
:102C1000FBD70C0EE66E6DEC18F0E5523EEC19F0A9
:102C2000000901E0FBD7010EE66E6DEC18F0E552ED
:102C30003EEC19F0000901E0FBD7060EE66E6DECE4
:0A2C400018F0E55218EC01F0120044
:062C4A0001020408102045
:102C500040800000010002000100030001000200AA
:102C60000100040001000200010003000100020055
:102C70000100050001000200010003000100020044
:102C80000100040001000200010003000100020035
:102C90000100060001000200010003000100020023
:102CA0000100040001000200010003000100020015
:102CB0000100050001000200010003000100020004
:102CC00001000400010002000100030001000200F5
:102CD00001000700010002000100030001000200E2
:102CE00001000400010002000100030001000200D5
:102CF00001000500010002000100030001000200C4
:102D000001000400010002000100030001000200B4
:102D100001000600010002000100030001000200A2
:102D20000100040001000200010003000100020094
:102D30000100050001000200010003000100020083
:102D40000100040001000200010003000100020074
:022D5000010080
:0E2D5200D9CFE6FFDACFE6FFE1CFD9FFE2CF1F
:102D6000DAFF0F0E83160F0E951695949592959097
:102D70008C948C928C9047EC15F0300EE66E6DECD6
:102D800018F0E552050EE66EAFEC19F0E552300E84
:102D9000E66E6DEC18F0E552010EE66EAFEC19F040
:102DA000E552320EE66E6DEC18F0E5523EEC19F08D
:102DB000000901E0FBD73EEC19F0000901E0FBD768
:102DC000FD0EDBCFE6FF6DEC18F0E5523EEC19F09E
:102DD000000901E0FBD7080EE66E6DEC18F0E55235
:102DE0003EEC19F0000901E0FBD70F0EE66E6DEC2A
:102DF00018F0E5523EEC19F0000901E0FBD7010E96
:102E0000E66E6DEC18F0E5523EEC19F0000901E0B9
:102E1000FBD7130EE66E6DEC18F0E5523EEC19F0A0
:102E2000000901E0FBD7800EE66EE1EC17F0E552F9
:0E2E300000D0E552E5CFDAFFE7CFD9FF120060
:022E3E002A0E5A
:102E4000F66E000EF76E000EF86E04010900F550E4
:102E5000BC6F0900F550BD6F03E1BC6701D03DD0E8
:102E60000900F550B76F0900F550B86F0900F5502B
:102E7000B96F09000900F550E96E0900F550EA6ED6
:102E8000090009000900F550BA6F0900F550BB6F41
:102E900009000900F6CFBEF4F7CFBFF4F8CFC0F4B5
:102EA000B7C4F6FFB8C4F7FFB9C4F8FF0401BA53BA
:102EB00002E1BB5307E00900F550EE6EBA07F8E2F5
:102EC000BB07F9D7BEC4F6FFBFC4F7FFC0C4F8FF05
:0C2ED0000401BC07000EBD5BBFD7120060
:042EDC00D9CFE6FF65
:102EE000DACFE6FFE1CFD9FFE2CFDAFFFB0EDBCF8F
:102EF000F6FFFC0EDBCFF7FFFD0EDBCFF8FF08007F
:102F0000F55020E03EEC19F0000901E0FBD7FB0E84
:102F1000DBCFF6FFFC0EDBCFF7FFFD0EDBCFF8FFBC
:102F20000800F550E66E3FEC18F0E552D950FB0F63
:102F3000E96EFF0EDA20EA6EEE2A000EEE22000E97
:102F4000EE22D4D700D0E552E5CFDAFFE7CFD9FFA4
:022F500012006D
:0E2F520018501D02F3CF14F0F4CF15F01E023C
:102F6000F3501526000EF420166E18501F02F35071
:102F70001626000EF420176E18502002F350172664
:102F800019501D02F3501526F4501622000E172278
:102F900019501E02F3501626F450172219501F0222
:102FA000F35017261A501D02F3501626F45017221C
:102FB0001A501E02F35017261B501D02F3501726FD
:022FC0001200FD
:0E2FC200D9CFE6FFDACFE6FFE1CFD9FFE2CFAD
:102FD000DAFF0F0E95160F0E8316FD0EDB508009DB
:102FE000F00B83128C948C9239EC15F08C8039ECB8
:102FF00015F08C900F0E8316FD0EDB38F00BF00BE6
:10300000831239EC15F08C8039EC15F08C90F00EB1
:10301000951200D0E552E5CFDAFFE7CFD9FF1200D5
:10302000D9CFE6FFDACFE6FFE1CFD9FFE2CFDAFF73
:103030000F0E95160F0E8316FD0EDB504009F00B98
:1030400083128C948C9239EC15F08C8039EC15F04D
:103050008C900F0E8316FD0EDB38F00BF00B8312F5
:1030600039EC15F08C8039EC15F08C90F00E95123F
:0E30700000D0E552E5CFDAFFE7CFD9FF12001E
:02307E00D9CFA8
:10308000E6FFDACFE6FFE1CFD9FFE2CFDAFF0F0E9E
:1030900095160F0E8316FD0EDB50F00B83128C82FB
:1030A0008C9439EC15F08C8039EC15F08C900F0E67
:1030B0008316FD0EDB38F00BF00B831239EC15F0A4
:1030C0008C8039EC15F08C90F00E951200D0E55202
:0A30D000E5CFDAFFE7CFD9FF1200C9
:0630DA00D9CFE6FFDACFBA
:1030E000E6FFE1CFD9FFE2CFDAFF0F0E95160F0E04
:1030F0008316FD0EDB50F00B83128C948C9239EC0E
:1031000015F08C8039EC15F08C900F0E8316FD0EA7
:10311000DB38F00BF00B831239EC15F08C8039ECB6
:1031200015F08C90F00E951200D0E552E5CFDAFF45
:06313000E7CFD9FF1200F9
:0A313600D9CFE6FFDACFE6FFE1CFC4
:10314000D9FFE2CFDAFFFC0EDBCFE9FFFD0EDBCFCC
:10315000EAFFEF5016E03EEC19F0000901E0FBD762
:10316000FC0EDBCFE9FFFD0EDBCFEAFFEF50E66E92
:103170003FEC18F0E552FC0EDB2AFD0E01E3DB2AE2
:10318000E2D700D0E552E5CFDAFFE7CFD9FF120052
:10319000D9CFE6FFDACFE6FFE1CFD9FFE2CFDAFF02
:1031A000E6528C848C8239EC15F08C8039EC15F069
:1031B000F00E8314DF6E8C9039EC15F08C8039ECB6
:1031C00015F083380F0B0F0BDF128C908C928C94C0
:1031D000DF5000D0E552E552E5CFDAFFE7CFD9FF67
:0231E0001200DB
:0E31E200D9CFE6FFDACFE6FFE1CFD9FFE2CF8B
:1031F000DAFFE6528C848C9239EC15F08C8039EC35
:1032000015F0F00E8314DF6E8C9039EC15F08C8085
:1032100039EC15F083380F0B0F0BDF128C908C9468
:103220007F0EDF1400D0E552E552E5CFDAFFE7CF9D
:04323000D9FF1200B0
:0C323400176A166A156A146A200EE76E0D
:10324000D890183619361A361B36143615361636F7
:1032500017361D50145C1E5015581F50165820501C
:10326000175809E31D50145E1E50155A1F50165A68
:0C3270002050175A182AE72EE4D712004D
:04327C008C848C9220
:1032800039EC15F08C8039EC15F083AE0BD08C90B6
:1032900039EC15F08C8039EC15F08C908C94010E83
:1032A0000BD00AD08C9039EC15F08C8039EC15F0ED
:0A32B0008C908C94000E00D01200E8
:0632BA00D9CFE6FFDACFD8
:1032C000E6FFE1CFD9FFE2CFDAFFE652E652FC0E8D
:1032D000DBCFDEFFDBCFDDFF010EDB50D76EDF5033
:1032E000D66EE552E552E552E5CFDAFFE7CFD9FFDA
:0232F0001200CA
:0E32F200D9CFE6FFDACFE6FFE1CFD9FFE2CF7A
:10330000DAFFFD0EDB507F0BD56ED76AD66AF294DA
:10331000FD0EDBAE02D0F28A01D0F29AD58EE552D4
:0A332000E5CFDAFFE7CFD9FF120076
:06332A00FE0EE3CFE9FFF7
:10333000FF0EE3CFEAFFE9CFF3FFEACFF4FFFB0E86
:10334000E35003E1FC0EE35009E0FB0EE30602E26A
:0E335000FC0EE306FD0EE350EE6EF1D7120008
:02335E00FF0E60
:10336000E350256EEF0E01D0F30EE76EE72EB6EFB9
:1033700019F00C0E246EE76AE72EBCEF19F0242E2C
:0C338000BBEF19F0252EB4EF19F012007D
:04338C00FF0EE350FD
:10339000256E480E01D04C0EE76EE72EFED7E76A89
:0C33A000E72EFED7252EF7D70000120004
:0433AC00000EF36EAE
:1033B00000EE00F0060E01D81200EA6002D0EE6ABC
:0C33C000FCD7F350E9601200EE6AFCD765
:0433CC0010EE80F08F
:1033D00020EE80F0F86A239C1FEC17F00CEC1AF03A
:0833E000BEEC15F0FBD7120052
:0833E800F2A407D0F294D80E04
:1033F000D76EA00ED66EC9EC01F01200E652E5526F
:023400001100B9
:0E340200FF0EE350E84E1200000000D000D094
:0834100000D0E82EFAD71200EB
:023418001200A0
:06341A005461736B2031C8
:1034200020726F636B7321200A00005461736B205C
:0D343000322072756C65733F0000000000D3
:020000040030CA
:0100010022DC
:010003000EEE
:010006008178
:00000001FF
